{
  "contractName": "EtherWatch",
  "abi": [
    {
      "stateMutability": "payable",
      "type": "fallback",
      "payable": true
    },
    {
      "stateMutability": "payable",
      "type": "receive",
      "payable": true
    },
    {
      "inputs": [
        {
          "internalType": "string",
          "name": "movie",
          "type": "string"
        }
      ],
      "name": "addMovie",
      "outputs": [],
      "stateMutability": "payable",
      "type": "function",
      "payable": true
    },
    {
      "inputs": [
        {
          "internalType": "address",
          "name": "sender",
          "type": "address"
        }
      ],
      "name": "getMovies",
      "outputs": [
        {
          "internalType": "string[]",
          "name": "",
          "type": "string[]"
        }
      ],
      "stateMutability": "view",
      "type": "function",
      "constant": true
    }
  ],
  "bytecode": "0x608060405234801561001057600080fd5b50610aed806100206000396000f3fe60806040526004361061002d5760003560e01c8063157dc72b1461003657806372511e471461007357610034565b3661003457005b005b34801561004257600080fd5b5061005d6004803603810190610058919061062b565b61008f565b60405161006a919061077a565b60405180910390f35b61008d60048036038101906100889190610654565b61031c565b005b60606000600160008473ffffffffffffffffffffffffffffffffffffffff1673ffffffffffffffffffffffffffffffffffffffff16815260200190815260200160002060009054906101000a900460ff1660ff1667ffffffffffffffff811115610122577f4e487b7100000000000000000000000000000000000000000000000000000000600052604160045260246000fd5b60405190808252806020026020018201604052801561015557816020015b60608152602001906001900390816101405790505b50905060005b600160008573ffffffffffffffffffffffffffffffffffffffff1673ffffffffffffffffffffffffffffffffffffffff16815260200190815260200160002060009054906101000a900460ff1660ff16811015610312576000808573ffffffffffffffffffffffffffffffffffffffff1673ffffffffffffffffffffffffffffffffffffffff1681526020019081526020016000208181548110610228577f4e487b7100000000000000000000000000000000000000000000000000000000600052603260045260246000fd5b90600052602060002001805461023d90610903565b80601f016020809104026020016040519081016040528092919081815260200182805461026990610903565b80156102b65780601f1061028b576101008083540402835291602001916102b6565b820191906000526020600020905b81548152906001019060200180831161029957829003601f168201915b50505050508282815181106102f4577f4e487b7100000000000000000000000000000000000000000000000000000000600052603260045260246000fd5b6020026020010181905250808061030a90610966565b91505061015b565b5080915050919050565b66038d7ea4c680003411610365576040517f08c379a000000000000000000000000000000000000000000000000000000000815260040161035c9061079c565b60405180910390fd5b6000600160003373ffffffffffffffffffffffffffffffffffffffff1673ffffffffffffffffffffffffffffffffffffffff16815260200190815260200160002060009054906101000a900460ff1660ff16141561041a5760018060003373ffffffffffffffffffffffffffffffffffffffff1673ffffffffffffffffffffffffffffffffffffffff16815260200190815260200160002060006101000a81548160ff021916908360ff160217905550610490565b600160003373ffffffffffffffffffffffffffffffffffffffff1673ffffffffffffffffffffffffffffffffffffffff168152602001908152602001600020600081819054906101000a900460ff1680929190610476906109af565b91906101000a81548160ff021916908360ff160217905550505b6000803373ffffffffffffffffffffffffffffffffffffffff1673ffffffffffffffffffffffffffffffffffffffff1681526020019081526020016000208190806001815401808255809150506001900390600052602060002001600090919091909150908051906020019061050792919061050b565b5050565b82805461051790610903565b90600052602060002090601f0160209004810192826105395760008555610580565b82601f1061055257805160ff1916838001178555610580565b82800160010185558215610580579182015b8281111561057f578251825591602001919060010190610564565b5b50905061058d9190610591565b5090565b5b808211156105aa576000816000905550600101610592565b5090565b60006105c16105bc846107e1565b6107bc565b9050828152602081018484840111156105d957600080fd5b6105e48482856108c1565b509392505050565b6000813590506105fb81610aa0565b92915050565b600082601f83011261061257600080fd5b81356106228482602086016105ae565b91505092915050565b60006020828403121561063d57600080fd5b600061064b848285016105ec565b91505092915050565b60006020828403121561066657600080fd5b600082013567ffffffffffffffff81111561068057600080fd5b61068c84828501610601565b91505092915050565b60006106a1838361071e565b905092915050565b60006106b482610822565b6106be8185610845565b9350836020820285016106d085610812565b8060005b8581101561070c57848403895281516106ed8582610695565b94506106f883610838565b925060208a019950506001810190506106d4565b50829750879550505050505092915050565b60006107298261082d565b6107338185610856565b93506107438185602086016108d0565b61074c81610a66565b840191505092915050565b6000610764601883610867565b915061076f82610a77565b602082019050919050565b6000602082019050818103600083015261079481846106a9565b905092915050565b600060208201905081810360008301526107b581610757565b9050919050565b60006107c66107d7565b90506107d28282610935565b919050565b6000604051905090565b600067ffffffffffffffff8211156107fc576107fb610a37565b5b61080582610a66565b9050602081019050919050565b6000819050602082019050919050565b600081519050919050565b600081519050919050565b6000602082019050919050565b600082825260208201905092915050565b600082825260208201905092915050565b600082825260208201905092915050565b60006108838261088a565b9050919050565b600073ffffffffffffffffffffffffffffffffffffffff82169050919050565b6000819050919050565b600060ff82169050919050565b82818337600083830152505050565b60005b838110156108ee5780820151818401526020810190506108d3565b838111156108fd576000848401525b50505050565b6000600282049050600182168061091b57607f821691505b6020821081141561092f5761092e610a08565b5b50919050565b61093e82610a66565b810181811067ffffffffffffffff8211171561095d5761095c610a37565b5b80604052505050565b6000610971826108aa565b91507fffffffffffffffffffffffffffffffffffffffffffffffffffffffffffffffff8214156109a4576109a36109d9565b5b600182019050919050565b60006109ba826108b4565b915060ff8214156109ce576109cd6109d9565b5b600182019050919050565b7f4e487b7100000000000000000000000000000000000000000000000000000000600052601160045260246000fd5b7f4e487b7100000000000000000000000000000000000000000000000000000000600052602260045260246000fd5b7f4e487b7100000000000000000000000000000000000000000000000000000000600052604160045260246000fd5b6000601f19601f8301169050919050565b7f4c6f7720707269636520666f7220746865206d6f7669652e0000000000000000600082015250565b610aa981610878565b8114610ab457600080fd5b5056fea2646970667358221220a2122f9a75211fcc86e65452a1f8b29a076f6396e5ea2835902622a8106e825064736f6c63430008040033",
  "immutableReferences": {},
  "source": "// SPDX-License-Identifier: GPL-3.0\r\npragma solidity >=0.8.0 <0.9.0;\r\n\r\ncontract EtherWatch{\r\n    fallback() external payable {}\r\n    receive() external payable {}\r\n    mapping(address => string[]) private fm;\r\n    mapping(address =>uint8) private numberM;\r\n    \r\n    function addMovie(string memory movie) external payable{\r\n      require(msg.value > 0.001 ether, \"Low price for the movie.\");\r\n      if(numberM[msg.sender]==0){\r\n        numberM[msg.sender] = 1;\r\n      } else{\r\n        numberM[msg.sender]++;\r\n      }\r\n      fm[msg.sender].push(movie);\r\n    }\r\n    function getMovies(address sender) external view returns(string[] memory){\r\n      string[] memory _movies = new string[](numberM[sender]);\r\n\r\n      for(uint i =0; i<numberM[sender]; i++){\r\n          _movies[i] = fm[sender][i];\r\n      }\r\n      return _movies;\r\n    }\r\n}\r\n//const inst = await EtherWatch.deployed();\r\n//inst.getMovies('0x99cF41F29C63e3C6760870d67b116A872A1bAf2d', {from: '0x99cF41F29C63e3C6760870d67b116A872A1bAf2d'})\r\n//inst.addMovie('tt5304992', {from: '0x99cF41F29C63e3C6760870d67b116A872A1bAf2d', value: '1000000000000000000000'})\r\n",
  "sourcePath": "C:\\Users\\Emad\\Desktop\\temp\\etherwatch\\contracts\\EtherWatchContract.sol",
  "compiler": {
    "name": "solc",
    "version": "0.8.4+commit.c7e474f2.Emscripten.clang"
  },
  "schemaVersion": "3.4.16",
  "updatedAt": "2023-10-13T15:56:45.849Z",
  "networkType": "ethereum",
  "devdoc": {
    "kind": "dev",
    "methods": {},
    "version": 1
  },
  "userdoc": {
    "kind": "user",
    "methods": {},
    "version": 1
  }
}