{
  "contractName": "Faucet",
  "abi": [
    {
      "stateMutability": "payable",
      "type": "fallback",
      "payable": true
    },
    {
      "inputs": [],
      "name": "numOfFunders",
      "outputs": [
        {
          "internalType": "uint256",
          "name": "",
          "type": "uint256"
        }
      ],
      "stateMutability": "view",
      "type": "function",
      "constant": true
    },
    {
      "inputs": [],
      "name": "owner",
      "outputs": [
        {
          "internalType": "address",
          "name": "",
          "type": "address"
        }
      ],
      "stateMutability": "view",
      "type": "function",
      "constant": true
    },
    {
      "inputs": [],
      "name": "testNum",
      "outputs": [
        {
          "internalType": "uint256",
          "name": "",
          "type": "uint256"
        }
      ],
      "stateMutability": "view",
      "type": "function",
      "constant": true
    },
    {
      "stateMutability": "payable",
      "type": "receive",
      "payable": true
    },
    {
      "inputs": [],
      "name": "emitLog",
      "outputs": [
        {
          "internalType": "bytes32",
          "name": "",
          "type": "bytes32"
        }
      ],
      "stateMutability": "pure",
      "type": "function",
      "constant": true
    },
    {
      "inputs": [],
      "name": "addFunds",
      "outputs": [],
      "stateMutability": "payable",
      "type": "function",
      "payable": true
    },
    {
      "inputs": [
        {
          "internalType": "uint256",
          "name": "amount",
          "type": "uint256"
        }
      ],
      "name": "withdraw",
      "outputs": [],
      "stateMutability": "nonpayable",
      "type": "function"
    },
    {
      "inputs": [],
      "name": "getAllFunders",
      "outputs": [
        {
          "internalType": "address[]",
          "name": "",
          "type": "address[]"
        }
      ],
      "stateMutability": "view",
      "type": "function",
      "constant": true
    },
    {
      "inputs": [
        {
          "internalType": "uint8",
          "name": "index",
          "type": "uint8"
        }
      ],
      "name": "getFunderAtIndex",
      "outputs": [
        {
          "internalType": "address",
          "name": "",
          "type": "address"
        }
      ],
      "stateMutability": "view",
      "type": "function",
      "constant": true
    }
  ],
  "bytecode": "0x608060405273576a87afe897d8a295b154d13bd798846cd4f4ba600360006101000a81548173ffffffffffffffffffffffffffffffffffffffff021916908373ffffffffffffffffffffffffffffffffffffffff16021790555034801561006557600080fd5b50336000806101000a81548173ffffffffffffffffffffffffffffffffffffffff021916908373ffffffffffffffffffffffffffffffffffffffff1602179055506103e8600181905550610949806100be6000396000f3fe60806040526004361061007f5760003560e01c8063a26759cb1161004e578063a26759cb14610144578063ae28f1ed1461014e578063af7f2c9b14610179578063f42c13bf146101a457610086565b80630a93cf33146100885780632e1a7d4d146100c55780636fbbb55d146100ee5780638da5cb5b1461011957610086565b3661008657005b005b34801561009457600080fd5b506100af60048036038101906100aa91906105d0565b6101cf565b6040516100bc9190610706565b60405180910390f35b3480156100d157600080fd5b506100ec60048036038101906100e791906105a7565b61020f565b005b3480156100fa57600080fd5b506101036102bf565b6040516101109190610721565b60405180910390f35b34801561012557600080fd5b5061012e610405565b60405161013b9190610706565b60405180910390f35b61014c610429565b005b34801561015a57600080fd5b50610163610549565b604051610170919061077e565b60405180910390f35b34801561018557600080fd5b5061018e61054f565b60405161019b919061077e565b60405180910390f35b3480156101b057600080fd5b506101b9610555565b6040516101c69190610743565b60405180910390f35b6000600560008360ff16815260200190815260200160002060009054906101000a900473ffffffffffffffffffffffffffffffffffffffff169050919050565b60003373ffffffffffffffffffffffffffffffffffffffff1682604051610235906106f1565b60006040518083038185875af1925050503d8060008114610272576040519150601f19603f3d011682016040523d82523d6000602084013e610277565b606091505b50509050806102bb576040517f08c379a00000000000000000000000000000000000000000000000000000000081526004016102b29061075e565b60405180910390fd5b5050565b6060600060025467ffffffffffffffff811115610305577f4e487b7100000000000000000000000000000000000000000000000000000000600052604160045260246000fd5b6040519080825280602002602001820160405280156103335781602001602082028036833780820191505090505b50905060005b6002548110156103fd576005600082815260200190815260200160002060009054906101000a900473ffffffffffffffffffffffffffffffffffffffff168282815181106103b0577f4e487b7100000000000000000000000000000000000000000000000000000000600052603260045260246000fd5b602002602001019073ffffffffffffffffffffffffffffffffffffffff16908173ffffffffffffffffffffffffffffffffffffffff168152505080806103f590610841565b915050610339565b508091505090565b60008054906101000a900473ffffffffffffffffffffffffffffffffffffffff1681565b6000339050600460008273ffffffffffffffffffffffffffffffffffffffff1673ffffffffffffffffffffffffffffffffffffffff16815260200190815260200160002060009054906101000a900460ff166105465760006002600081548092919061049490610841565b9190505590506001600460008473ffffffffffffffffffffffffffffffffffffffff1673ffffffffffffffffffffffffffffffffffffffff16815260200190815260200160002060006101000a81548160ff021916908315150217905550816005600083815260200190815260200160002060006101000a81548173ffffffffffffffffffffffffffffffffffffffff021916908373ffffffffffffffffffffffffffffffffffffffff160217905550505b50565b60015481565b60025481565b60007f48656c6c6f20576f726c64000000000000000000000000000000000000000000905090565b60008135905061058c816108e5565b92915050565b6000813590506105a1816108fc565b92915050565b6000602082840312156105b957600080fd5b60006105c78482850161057d565b91505092915050565b6000602082840312156105e257600080fd5b60006105f084828501610592565b91505092915050565b60006106058383610611565b60208301905092915050565b61061a816107ee565b82525050565b610629816107ee565b82525050565b600061063a826107a9565b61064481856107c1565b935061064f83610799565b8060005b8381101561068057815161066788826105f9565b9750610672836107b4565b925050600181019050610653565b5085935050505092915050565b61069681610800565b82525050565b60006106a96014836107dd565b91506106b4826108b9565b602082019050919050565b60006106cc6000836107d2565b91506106d7826108e2565b600082019050919050565b6106eb8161082a565b82525050565b60006106fc826106bf565b9150819050919050565b600060208201905061071b6000830184610620565b92915050565b6000602082019050818103600083015261073b818461062f565b905092915050565b6000602082019050610758600083018461068d565b92915050565b600060208201905081810360008301526107778161069c565b9050919050565b600060208201905061079360008301846106e2565b92915050565b6000819050602082019050919050565b600081519050919050565b6000602082019050919050565b600082825260208201905092915050565b600081905092915050565b600082825260208201905092915050565b60006107f98261080a565b9050919050565b6000819050919050565b600073ffffffffffffffffffffffffffffffffffffffff82169050919050565b6000819050919050565b600060ff82169050919050565b600061084c8261082a565b91507fffffffffffffffffffffffffffffffffffffffffffffffffffffffffffffffff82141561087f5761087e61088a565b5b600182019050919050565b7f4e487b7100000000000000000000000000000000000000000000000000000000600052601160045260246000fd5b7f536f6d657468696e672077656e742077726f6e67000000000000000000000000600082015250565b50565b6108ee8161082a565b81146108f957600080fd5b50565b61090581610834565b811461091057600080fd5b5056fea2646970667358221220a1b5ef17502f760e2fe1681b7d22bdb74d6a302f6685ee11088eb134e19a6e3064736f6c63430008040033",
  "immutableReferences": {},
  "source": "// SPDX-License-Identifier: GPL-3.0\r\npragma solidity >=0.8.0 <0.9.0;\r\n\r\nimport \"./Owned.sol\";\r\nimport \"./Logger.sol\";\r\nimport \"./IFaucet.sol\";\r\n\r\ncontract Faucet is Owned, Logger, IFaucet {\r\n  uint public numOfFunders;\r\n  address payable Owner = payable(0x576a87AfE897D8a295B154D13bd798846cd4f4bA);\r\n  mapping(address => bool) private funders;\r\n  mapping(uint => address) private lutFunders;\r\n\r\n  modifier limitWithdraw(uint withdrawAmount) {\r\n    require(\r\n      withdrawAmount <= 1000000000000000000,\r\n      \"Cannot withdraw more than 1 ether\"\r\n    );\r\n    _;\r\n  }\r\n\r\n  receive() external payable {}\r\n\r\n  function emitLog() public override pure returns(bytes32) {\r\n    return \"Hello World\";\r\n  }\r\n\r\n  function addFunds() override external payable {\r\n    address funder = msg.sender;\r\n\r\n    if (!funders[funder]) {\r\n      uint index = numOfFunders++;\r\n      funders[funder] = true;\r\n      lutFunders[index] = funder;\r\n    }\r\n  }\r\n   fallback() external payable {}\r\n//    function sendViaTransfer(address payable _to, uint value) public payable {\r\n//         // This function is no longer recommended for sending Ether.\r\n//         _to.transfer(value);\r\n//     }\r\n\r\n//     function sendViaSend(address payable _to, uint value) public payable {\r\n//         // Send returns a boolean value indicating success or failure.\r\n//         // This function is not recommended for sending Ether.\r\n//         bool sent = _to.send(value);\r\n//         require(sent, \"Failed to send Ether\");\r\n//     }\r\n\r\n//     function sendViaCall(address payable _to, uint valuesa) public payable {\r\n//         // Call returns a boolean value indicating success or failure.\r\n//         // This is the current recommended method to use.\r\n//         (bool sent, bytes memory data) = _to.call{value: valuesa, gas: 21000}(\"\");\r\n//         require(sent, \"Failed to send Ether\");\r\n//     }\r\n\r\n    function withdraw(uint amount) override external {\r\n        (bool succes, ) = payable(msg.sender).call{value: amount}(\"\");\r\n        require(succes, \"Something went wrong\");\r\n    }\r\n\r\n  function getAllFunders() external view returns (address[] memory) {\r\n    address[] memory _funders = new address[](numOfFunders);\r\n\r\n    for (uint i = 0; i < numOfFunders; i++) {\r\n      _funders[i] = lutFunders[i];\r\n    }\r\n\r\n    return _funders;\r\n  }\r\n\r\n  function getFunderAtIndex(uint8 index) external view returns(address) {\r\n    return lutFunders[index];\r\n  }\r\n}\r\n\r\n\r\n// const instance = await Faucet.deployed();\r\n\r\n// instance.addFunds({from: accounts[0], value: \"2000000000000000000\"})\r\n// instance.addFunds({from: accounts[1], value: \"2000000000000000000\"})\r\n\r\n// instance.withdraw(\"500000000000000000\", {from: accounts[1]})\r\n\r\n// instance.getFunderAtIndex(0)\r\n// instance.getAllFunders()",
  "sourcePath": "C:\\Users\\Emad\\Desktop\\temp\\etherwatch\\contracts\\FaucetContract.sol",
  "compiler": {
    "name": "solc",
    "version": "0.8.4+commit.c7e474f2.Emscripten.clang"
  },
  "schemaVersion": "3.4.16",
  "updatedAt": "2023-10-13T15:56:21.809Z",
  "networkType": "ethereum",
  "devdoc": {
    "kind": "dev",
    "methods": {},
    "version": 1
  },
  "userdoc": {
    "kind": "user",
    "methods": {},
    "version": 1
  }
}